:100000000C94A1020C94BE020C94BE020C94BE028D
:100010000C94BE020C94BE020C94BE020C94BE0260
:100020000C94BE020C94BE020C94BE020C94BE0250
:100030000C94BE020C94BE020C94BE020C94BE0240
:100040000C94BE020C94BE020C94BE020C94BE0230
:100050000C94BE020C94BE020C94BE020C94BE0220
:100060000C94BE020C94BE025F000403040401045D
:10007000050A0D00FE09FE09000185034804BD20A4
:100080000500910221079151C245002208239F4299
:10009000844400231899514B4C504CC881484C5013
:1000A0004C504CC881484C504C0800241299515374
:1000B000D4454C8C4CD4558C4C8AAB2000251599DA
:1000C000518B5044482E8224E252084584E4224851
:1000D0000400261499518B58485448985848509A0F
:1000E000A888543115012706215F820028099391C1
:1000F0004A4492DC24290A9391424C925C24012ABE
:100100000A55DD4A50484536012B0B55D54A504813
:10011000495008002C062271C6002D0615D942014F
:100120002E06227102012F099951635CFE100030E6
:100130000F99514B4D54449CEE22A2624A00310962
:1001400095D14AC8503E29320E9951C7455C608A04
:100150008BC0840702330F9951C7455C609ACA402F
:10016000B9880B00340B995143609CBA83C11C358C
:100170000F9951C3C160C283C840B9880B003610C3
:100180009951C7459C60E041449CBA880B00370BED
:100190009951C381605C0E3302380F9951C7459C59
:1001A000BA888B387511170039109951C7459CBA18
:1001B0008883C040B9880B003A0762710211013B85
:1001C000086271029144003C0874B14E4846193DE2
:1001D0000744B50221013E0974B1425026D9003FBF
:1001E0000F9951C7459C5C6010553C6C100040163F
:1001F00099514B4D5444C88854840885444C848894
:1002000045A4050041149951535C445844544C5042
:100210004D544854449C5C0042139951C34958447E
:100220009C58C44958449C58C40900431099514BE8
:100230004D54449C60761151312500440D9951C3B1
:100240004958449C9E459C00450E9951C3C160C2CB
:100250008388C0840702460D9951C3C160C2838858
:10026000C00C01470F99518B4998601A3BB988B06F
:100270009003480B9951439C760774DA054907911E
:1002800051C281004A0E9951DB6086727211513160
:1002900025004B149951439C58445448504C519A52
:1002A000A890B088B8004C09995143607E78204DE1
:1002B00012995143DCD4444C844844884C8C9C763D
:1002C000014E14995143DC98449448904C8C5088CA
:1002D0005484D85C004F0F99514B4D54449CEE22EE
:1002E000A2624A00500E9951C341449CBA0389C08E
:1002F0000C015119AA6F4B5154485C445C444C8A20
:10030000A09088A88890A8A08AD00052109951C3C4
:1003100041449CBA0389B088387501530F9951C77D
:10032000459C60E465A05CC40500540A9951C381F2
:1003300050607E04550C9951439CBE8B888A2901DC
:1003400056159951439C5C445448544CA298A88833
:10035000B088B8200057179951434C8C4C8C4C8C6A
:100360004C8C4C8A9C446412914D12005813995144
:10037000435C44544CAA88B8145131A922E2025972
:100380000F9951435C44544CAA88B8C01C015A0AC6
:100390009951C3815C7E77205B089271C244BE1084
:1003A0005C0899514364FE005D0892718244BE1856
:1003B0005E0935DD4A4C449A005F071951C381003C
:1003C000600734BD825002610D7951C765C4819CBC
:1003D000BA880B00620E99514360E041449CEE0ED6
:1003E0002400630C7951C7459C6076111700640C9A
:1003F0009951638A0339DD451C04650E7951C7455F
:100400009CDC814460E40500660C9951CB45DC41DD
:100410004860DE01670E994DC7819CEE220E020FE7
:100420002400680C99514360E041449CDE05690753
:10043000915142C4016A0CB94D633C4860BE8B388F
:10044000016B0F995143603AB18893B088387501B8
:100450006C08927142447E126D13795103C5444C6D
:100460008C4C8C4C8C4C8C4C8C4C026E0A7951C34D
:1004700041449CDE056F0B7951C7459CEE222E004E
:10048000700E994DC341449CEE0E24020301710C81
:10049000994DC7819CEE220E0213720B7951C34114
:1004A000449CC20C01730D7951C7459CE4A55CC402
:1004B0000500740B99514B609855602E0D750A79A3
:1004C00051439CDE451C04760F7951439CBA88A8A1
:1004D00098541171410077137951434C8C4C8C4CDA
:1004E0008A9C4464932826040078107951435C4424
:1004F000544CAAA99854117101790D994D439CDE71
:10050000451C041E48007A0B7951C381585CCE0EFD
:10051000047B0C93914A44488A989034017C06717C
:1005200053C2017D0D9391424C489A88901421004A
:100530007E0A371787504822090000000004FFFF99
:10054000000011241FBECFEFD8E0DEBFCDBF11E009
:10055000A0E0B1E0E4E9F3E202C005900D92AA3E0A
:10056000B107D9F726E0AAEEB1E001C01D92A63B83
:10057000B207E1F70E94F10D0C94C8110C94000031
:100580000F931F93DC01ED91FC91119720899296B6
:100590000D911C919397629FB0011124660F771FF4
:1005A000660F771F660F771F060F171F60E00E9408
:1005B0007D0A1F910F910895EF92FF920F931F9361
:1005C000CF93DF938C01DC019496FC9094979596E1
:1005D000DC919597ED91FC91E188C0E04D2F6C2F57
:1005E000C8010E94C002CF5FDF5FCF1510F4DE1597
:1005F000A8F3DF91CF911F910F91FF90EF90089595
:10060000FC01A081B18150969C9144A1949FA001CE
:100610001124440F551F440F551F440F551F60E010
:1006200070E082A193A10E94D70E0895CF93DF932B
:10063000EC010E94DC02CE010E94C10ADF91CF9141
:10064000089528E0FC0120838AEE91E00895CF927E
:10065000DF92EF92FF920F931F93CF93DF931F923E
:10066000CDB7DEB77C016B0189019A0144EC59E0FA
:1006700065E57BE00E949A0BCE0101960E94210362
:10068000860125EC37E04981BC01C7010E94B4080E
:100690000F90DF91CF911F910F91FF90EF90DF901E
:1006A000CF900895860F911DFC0184910895FC015F
:1006B000E60FF11D849190E03196982F8827E49100
:1006C0008E0F911D089580E00895815A9F4FFC017F
:1006D00080818F5F08950F931F93CF93DF93EC0179
:1006E0008B0160E0C8010E945203888361E0C80169
:1006F0000E945203898362E0C8010E9452038A83E8
:1007000063E0C8010E9452038B8364E0C8010E9429
:1007100052038C8365E0C8010E9452038D8366E01A
:10072000C8010E9452038E8367E0C8010E945203F1
:100730008F8368E0C8010E945203888769E0C8017E
:100740000E94520389876AE0C8010E9452038A8787
:100750006BE0C8010E9452038B876CE0C8010E94C5
:1007600052038C876DE0C8010E9452038D876EE0B2
:10077000C8010E9452038E876FE0C8010E94520395
:100780008F8760E1C8010E945203888B61E1C80134
:100790000E9457039A8B898B63E1C8010E9457031B
:1007A0009C8B8B8B65E1C8010E9457039E8B8D8BC0
:1007B000DF91CF911F910F910895DC0118964C9114
:1007C0001897ED91FC911197249130E0042E02C00E
:1007D000359527950A94E2F7822F942F960F98303B
:1007E00080F088E0841B31961196FC93EE93E4919F
:1007F000F0E002C0EE0FFF1F8A95E2F78E2F822BEA
:10080000985021E030E002C0220F331F6A95E2F7D2
:10081000215018969C93822308950F931F93CF9392
:10082000DF93EC018C01075C1F4F7AAF69AFFC01CD
:10083000EF5BFF4F108239966081C8010E94DD0393
:100840008FAFFE01E55BFF4F6081C8010E94DD03B1
:10085000FE01E05CFF4F8083B3968081B097808378
:1008600091E0811190E0CC5BDF4F9883DF91CF91D5
:100870001F910F910895CF93C62F0E94DD03C150A1
:1008800021E030E002C0220F331FCA95E2F7821B3D
:10089000CF910895213031F018F0223029F006C0B0
:1008A000840F0895860F0895841B0895861B08956C
:1008B000213031F018F0223029F006C0860F08955B
:1008C000841B0895861B0895840F08958F929F922C
:1008D000AF92BF92CF92DF92EF92FF920F931F934E
:1008E000CF93DF93EC01D62E942ECDACEEAC1FADA2
:1008F0001C19D11610F0A12E01C0AD2CFCACFE01CC
:10090000EB5BFF4F00818E2C202F4E2D6C2D8BAD7D
:100910000E945804B82E202F4E2D6C2D8F2D0E9432
:100920004A04992069F0FE01ED5BFF4F9081B0967B
:1009300090832A2D482F6B2DCE010E94200710C0D6
:10094000FE01EE5BFF4F908191110AC032969081BB
:100950007F9690832A2D482F6B2DCE010E94200771
:10096000D11620F0D11AE394C12CC1CF6D2D6C0D9E
:100970006DAF8EAEDF91CF911F910F91FF90EF90F1
:10098000DF90CF90BF90AF909F908F9008959F92EF
:10099000AF92BF92CF92DF92EF92FF920F931F938D
:1009A000CF93DF93EC017C0189E3E80EF11CCE01CB
:1009B0000E940D04FE01E05CFF4FD0803C966081F8
:1009C000C7010E943B04982EFE01E35BFF4F60814C
:1009D000C7010E943B04182FFE01E25BFF4F6081BC
:1009E000C7010E943B04C82EBFAC1B140CF078C09A
:1009F000FE01EB5BFF4F00811D0D1195202F412F54
:100A0000692D8BAD0E945804A82E8BAF202F412F4B
:100A1000692D8CAD0E944A048CAF013059F028F04A
:100A2000023091F00330F1F026C02B2D2A0D0D2D50
:100A3000080F23C09A2D9D1921E02A0D0B2D080FB8
:100A4000AA24A394A90E19C09A2D9B1921E02A0D5E
:100A5000382F3D1901E0080F81E0830FAA24A394E9
:100A6000A90E0BC02D2D2A0D982F9B1901E0080F00
:100A700081E0890F02C0082F2A2D482F6A2DCE0150
:100A80000E94AA07882361F11DAE1EAEFE01E85B3D
:100A9000FF4F6081C7010E94DD03082FFE01E75B65
:100AA000FF4F6081C7010E94DD03182F40E0602FD7
:100AB000CE010E94660441E0612FCE010E946604CF
:100AC00061E0C7010E94DD038111F0CF8EAD8D156D
:100AD000ECF2FE01ED5BFF4F8081CD59DF4F888343
:100AE0008C2DDF91CF911F910F91FF90EF90DF90B0
:100AF000CF90BF90AF909F900895EF92FF920F9389
:100B00001F93CF93DF93FC01C5A9D6A967966F3FCA
:100B1000710509F040F56136710538F0E75AFF4F6D
:100B200080819181C80FD91F0AC06134710538F0E6
:100B3000FC01E95AFF4F80819181C80FD91FCE0176
:100B40000196FC012491222309F43CC0FE0124916A
:100B500030E06217730711F4019639C0FC018491EB
:100B6000C80FD11DECCF8B01FC01E55AFF4F8081EE
:100B70009181C80FD91F7E0160E0C7010E94570311
:100B8000C80FD91F62E0C7010E945703F4E0EF0EBF
:100B9000F11C8017910780F3FE01849190E0982F5B
:100BA00088273196E4918E2B009779F00817190762
:100BB00019F4CE0103960BC0FE013296E491CE0FDC
:100BC000D11DEACF80E090E002C080E090E0DF91AC
:100BD000CF911F910F91FF90EF900895CF93DF93E6
:100BE000EC016BAF4CAFB9010E947D05009729F075
:100BF000BC01CE010E94C70401C080E0DF91CF910B
:100C00000895EF92FF920F931F93CF93DF93EC0120
:100C1000162F042F7901FC01EB5BFF4F808181309F
:100C200061F028F0823079F0833099F017C0EFA995
:100C3000F8ADCE010995080F11C0EFA9F8ADCE01AE
:100C40000995181B0BC0EFA9F8ADCE010995081B3B
:100C500005C0EFA9F8ADCE010995180F9701402FF7
:100C6000612FCE010E94EE05DF91CF911F910F9170
:100C7000FF90EF900895DF92EF92FF920F931F93F2
:100C8000CF93DF93EC01D62EE42E89010E94EE086B
:100C9000F12CEA81FB81D8016C91CE0109958F3F3F
:100CA000BFEF9B0709F10F5F1F4F8E3F2FEF92079A
:100CB00081F39C014E2D6D2DCE010E940106FE0197
:100CC000EB5BFF4F9081913041F028F0923039F08A
:100CD000933039F007C0D80E05C0E80E03C0D81A0B
:100CE00001C0E81AF80ED5CF8F2DDF91CF911F915B
:100CF0000F91FF90EF90DF900895E1EEF8E0DC01B6
:100D00001396FC93EE9312970E943B060895FC0104
:100D100025A936A9232BE9F1ED5AFF4F20813C96F6
:100D200020833B9740813C96408332973081332328
:100D300081F1313079F439973081231714F43A96E0
:100D40003083FC01EA5AFF4F2081241714F53A96AC
:100D500020830895022E000C330BFC01E05BFF4F53
:100D6000E081DC01AE5ABF4F5C91652F052E000C6F
:100D7000770B6E0F711DE7FD7A95261737071CF468
:100D80001D96E50FEC93541724F4FC01E05AFF4F35
:100D900050830895FC01E25AFF4F10820E9487069B
:100DA000089523E633E0FC0130AF27AB089525E634
:100DB00033E0FC0130AF27AB0895CF93DF93FC0104
:100DC00025A936A92617370751F0EC0176AB65AB9C
:100DD0008A5B9F4F0E946B03CE010E948706DF91C2
:100DE000CF910895FC013081DB019C91930F931703
:100DF00030F4321718F49FEF920F01C0342F3217DE
:100E000070F4491770F4341708F0432F291708F0CD
:100E1000292F4083241BFB01208381E0089580E07B
:100E2000089580E008950F93DC0198963C9198977F
:100E3000431B5E96ED91FC915F9709950F91089584
:100E4000EF92FF920F931F93CF93DF9300D01F92E7
:100E5000CDB7DEB769834A832B83FC01E35AFF4F8A
:100E60002081222309F456C02B81222309F452C089
:100E7000223078F0023031F4362F321B232F2F5FCF
:100E8000298307C0033029F43A81321B232F2F5FB7
:100E90002A837C01102F117000FD1BC0DC019F967E
:100EA0009C919F978A818917A8F1D0969C91D097A1
:100EB000891780F59E962C919E979D964C91BE0128
:100EC0006D5F7F4FCE0101960E94F206811114C022
:100ED00021C0FC0195A589818917E0F096A58917A5
:100EE000C8F420A947A5BE016D5F7F4FCE010296D1
:100EF0000E94F206882371F0D7019096ED91FC9143
:100F000091970480F581E02D012F2B814A81698121
:100F1000C70109950F900F900F90DF91CF911F910E
:100F20000F91FF90EF900895461730F4821750F01C
:100F3000241750F481E00895821740F4241740F4F8
:100F400081E0089581E0089580E0089580E00895AB
:100F500080E00895FF920F931F93CF93DF93EC01EE
:100F6000162FF22E202F68A98FA50E9494078823A0
:100F700031F02F2D412F6EA58DA50E949407DF9192
:100F8000CF911F910F91FF9008950F931F93CF93CF
:100F9000DF93DC01342F377081E090E0032E02C034
:100FA000880F991F0A94E2F7182FFD01ED59FF4FA2
:100FB0005081523010F070E001C0782F513009F4A8
:100FC00010E050E0487FED91FC9111978089849F5B
:100FD000F001859FF00D112492968D919C9193972D
:100FE000E60FF11DE80FF91F011107C08081872B63
:100FF000812781932150D1F71EC09081972B912793
:1010000090833F5F3770215031110FC096968C91BD
:101010009697E80FF11DED01CD59DF4F88818230A1
:1010200008F471E0813021F404C0770F110F01C082
:1010300011E02111E2CFDF91CF911F910F9108951F
:10104000FC01A081B18184A1982F990F990F990F6C
:1010500097A350969C915097903208F09FE1990F7A
:10106000990F990F96A345A1942F990F990F990F56
:1010700090A7242F30E0280F311D51965C91519795
:10108000652F70E06217730714F4852F841B880F97
:10109000880F880F91A7890F82A780EF83A75496A6
:1010A0008D919C915597813F910508F483A75696A1
:1010B0008C9184A708950E94200808950F93CF93E0
:1010C000DF93EC010CA92AA94BA969A90E94AA07E0
:1010D000811104C0C35ADF4F188219C081E0FE019C
:1010E000E35AFF4F80839DA589A9981708F48DA71F
:1010F0009EA58AA9891708F48EA79FA58BA9981782
:1011000008F48FA798A98CA9891708F488ABDF91F8
:10111000CF910F910895FC0115A683A586A781A5FF
:1011200087A782A580ABCF010E945E0808950F9328
:101130000E9413070F910895DC01D1961C92D1975C
:10114000D3961C92D3978FEFD2968C93D297D49646
:101150008C93D4979096ED91FC9191970280F381B6
:10116000E02DCD01099508950F931F93CF93DF9341
:10117000EC011EAA1DAA3F8F2E8F7BA36AA34CA34E
:101180001DA2FC01EE5BFF4F1082B09610823196DB
:1011900081E080833196808319A308A3D801ED9163
:1011A000FC91CE010995CE010E949C08CE010E94BF
:1011B000D106CB5BDF4F1882DF91CF911F910F914A
:1011C0000895662329F06A3031F0862F90E0089563
:1011D0008FEF9FEF08958FEF9FEF0895FC01108E22
:1011E00008959A01DC011896ED91FC911997462F0C
:1011F00067E109950895CF93DF931F92CDB7DEB7CE
:101200006983AE014F5F5F4F61E00E94F1080F906C
:10121000DF91CF910895DC011896ED91FC9119971B
:1012200020E030E040E068E109950895DC0118967F
:10123000ED91FC91199720E030E040E069E10995DB
:101240000895EF92FF921F93CF93DF93EC01162F37
:101250007A010E940B0960E4CE010E94FB08E88538
:10126000F9859701412F67E1CE010995CE010E94D2
:101270001609DF91CF911F91FF90EF900895462FAF
:10128000DC011696ED91FC91179720E030E065E1C6
:1012900009950895462FDC011696ED91FC9117975C
:1012A00020E030E066E1099508959A01DC01169688
:1012B000ED91FC911797462F67E109950895DC01A0
:1012C0001696ED91FC91179720E030E040E068E140
:1012D00009950895DC011696ED91FC91179720E091
:1012E00030E040E069E109950895EF92FF920F9395
:1012F0001F93CF93DF931F92CDB7DEB77C018B0195
:10130000D8016D918D016731B9F018F4653130F471
:1013100033C06A31E8F06E3F31F12EC0FD014191DA
:101320008F014983D7011696ED91FC91179720E024
:1013300030E0C7010995E4CFFD0181918F018983D8
:10134000AE014F5F5F4F61E0C7010E945509D8CFE2
:10135000D7011696ED91FC91179720E030E040E020
:10136000C7010995CDCFFD0141918F01498369E204
:10137000C7010E94780BC4CF0F90DF91CF911F91CE
:101380000F91FF90EF900895EF92FF920F931F93AC
:10139000CF937C01C42F8901663129F130F4643187
:1013A00009F441C0653149F060C0683109F44EC0AC
:1013B000F8F0693109F44EC058C08091EA058823DD
:1013C00019F0C7010E941609C7010E940B0960E0CD
:1013D000C7010E94FB086C2FC7010E94FB0881E037
:1013E0008093EA0543C0642F0E94FB0881E03EC061
:1013F0008091EA05882361F0C7010E94160908C0A0
:10140000A80168E1C7010E942109C851085E1F4F69
:10141000C931B0F7A8016C2FC7010E9421091092B1
:10142000EA0581E023C0DC0156968C9156978F3FE8
:1014300019F488E756968C93D7011896ED91FC9194
:10144000199798014C2FC701099510C01092EA0511
:1014500081E00CC08091EA05882319F0C7010E9441
:1014600016091092EA0581E001C080E0CF911F913A
:101470000F91FF90EF900895FC0171836083FB0151
:101480002289FC01248B0895CF93DF93EC01EA8538
:10149000FB8520E030E040E068E20995EE81FF81C5
:1014A00020E030E040E064E1CE01099541E06BE4EA
:1014B000CE010E94780BE881F981448169E2CE0176
:1014C0000E94780B40E06BE4CE010E94780BE8812B
:1014D000F981448169E2CE010E94780B41E06BE41E
:1014E000CE010E94780BE881F981458169E2CE0145
:1014F0000E94780BDF91CF9108950F931F93CF93A4
:10150000DF9300D000D01F92CDB7DEB76C834D8340
:101510002B831A830983DC011496ED91FC911597B6
:101520009E012F5F3F4F41E06FE009950F900F90B4
:101530000F900F900F90DF91CF911F910F91089511
:10154000DC011496ED91FC91159720E030E040E02D
:1015500069E009950895DC011496ED91FC911597C9
:1015600020E030E040E06AE009950895462FDC0174
:101570001496ED91FC91159720E030E06BE0099511
:101580000895DC011496ED91FC91159720E030E070
:1015900040E060E109950895EF92FF920F931F9349
:1015A000CF93DF938C01C42F79016D30B9F018F41B
:1015B0006B3031F072C06E3069F16F30D1F16DC0B7
:1015C000411106C063E371E00E94750981E066C0C5
:1015D0006EE271E00E94750981E060C041110DC0AA
:1015E00067E271E00E947509D801ED91FC911197B5
:1015F000828954968C9381E051C060E271E00E9430
:101600007509D801ED91FC911197838954968C93BB
:1016100081E044C00E945F0961E8C8010E943F095F
:101620006C2FC8010E944A09C8010E946A0981E022
:1016300035C00E945F09F701D381DD0FDD0FDD0F9B
:10164000D80154968C91D80F60E4C8010E943F09DC
:101650006D2F62956F706061C8010E943F096D2F08
:101660006F70C8010E944A09F7016481606BC8016C
:101670000E944A09D70112966C9112974D915C9184
:10168000660F660F660FC8010E945509C15091F799
:10169000C8010E946A0981E001C080E0DF91CF911A
:1016A0001F910F91FF90EF9008950F931F93CF9389
:1016B0008C01C62F0E94CC0A811115C0C93061F07F
:1016C000CA3091F4C8010E94440A68E371E0C8017D
:1016D0000E94750981E008C068E071E0C8010E94BD
:1016E0003C0A81E001C081E0CF911F910F910895E4
:1016F000DC011A96ED91FC911B9720E030E00995F2
:10170000089580E00895FC011182108281E89BE039
:101710009583848397838683918780879387828745
:10172000158A108E14861586168617868FEF868B7F
:10173000828F0895AF92BF92CF92DF92EF92FF9285
:101740000F931F93CF93DF93EC015B016A01790143
:101750000E94830BBD82AC82DF82CE82F986E8864E
:101760001B870A87CE010E94A00ADF91CF911F91AB
:101770000F91FF90EF90DF90CF90BF90AF900895C2
:101780001092B90088E48093B80008950F931F93D6
:1017900094EA9093BC004FEF50E060E070E002C02C
:1017A000B901A8019091BC00992354F08A019B01D2
:1017B0000150110921093109452B462B472B81F78F
:1017C0009091B900987F983011F0903109F780938B
:1017D000BB0094E89093BC004FEF50E060E070E0F5
:1017E00002C0B901A8019091BC00992354F08A016C
:1017F0009B010150110921093109452B462B472B2B
:1018000081F79091B900987F903211F09835C9F422
:1018100094E99093BC004FEF50E060E070E002C0AC
:10182000B901A8019091BC0094FFB2CF8A019B013D
:101830000150110921093109452B462B472B81F70E
:10184000A7CF1F910F91089584E98093BC008FEF7B
:1018500090E0A0E0B0E002C0DB01CA012091BC0032
:1018600024FF0AC0AC01BD01415051096109710951
:10187000892B8A2B8B2B81F708958093BB0084E8FA
:101880008093BC008FEF90E0A0E0B0E002C0DB01ED
:10189000CA012091BC00222364F0AC01BD0141507B
:1018A000510961097109892B8A2B8B2B81F7DB0187
:1018B000CA01892B8A2B8B2B39F08091B900887F44
:1018C000883221F081E0089581E0089580E0089554
:1018D0000F931F93CF936831F9F028F46431C1F06E
:1018E000673181F004C06931E9F06032F9F080E0DD
:1018F0001EC089010F5F1F4FF90180810E943D0CBE
:101900004C2F9801CFEFC40F4111F3CF81E00FC0EE
:101910000E94C00B81E00BC0FC0186890E94C60BAF
:1019200081E005C00E94240C81E001C081E0CF91DC
:101930001F910F9108956A3211F118F4693261F123
:1019400004C06B3221F06C3269F180E00895242FDD
:1019500030E0A4E6B0E00E94B40E28EF30E040E0B2
:1019600050E00E94920E2332F8F4822F0197F1F793
:1019700081E0089595E39A95F1F70000482F8FEFE5
:10198000840F4111F7CF81E00895EFE9FFE031972F
:10199000F1F700C00000482F8FEF840F4111F5CF01
:1019A00081E0089581E0089581E008950F931F93E9
:1019B000CF93DF9300E010E096C049991AC08BB135
:1019C000877F8BB98FE496E00E94000368E670E0A1
:1019D0008FE496E00E94DD062DE631E04AE06EE1FC
:1019E0008FE496E00E947D068FE496E00E94160345
:1019F00032C0329920C08FE496E00E94000368E66E
:101A000070E08FE496E00E94DD0625E731E04AE0D1
:101A10006EE18FE496E00E947D068FE496E00E94DE
:101A200016032FEF83ED90E3215080409040E1F7C3
:101A300000C0000063C08BB188608BB92FEF81EECE
:101A400094E0215080409040E1F700C000002196D2
:101A500002C0C0E0D0E0CA30D1050CF4AECF0F5FB9
:101A60001F4F8091000190910101801B910B6CE34D
:101A700070E00E947E0E6093B5068093B4061F92BC
:101A80008F931F926F9383E891E09F938F938BEED8
:101A900095E09F938F930E94DE0E8FE496E00E9464
:101AA000000368E670E08FE496E00E94DD0629E816
:101AB00031E04AE06EE18FE496E00E947D062BEE75
:101AC00035E04EE168E28FE496E00E947D068FE407
:101AD00096E00E9416038DB79EB708960FB6F8944D
:101AE0009EBF0FBE8DBF80910001909101018017B4
:101AF00091070CF0AECF8BB1877F8BB9DF91CF917F
:101B00001F910F9108958091000190910101803EF5
:101B100021E0920741F1883522E0920709F442C0A2
:101B20008836914009F05CC08FE496E00E94000383
:101B300068E670E08FE496E00E94DD0623E931E07C
:101B40004AE06EE18FE496E00E947D062FE931E0E5
:101B500048E26EE18FE496E00E947D068FE496E015
:101B60000E94160308958FE496E00E94000368E641
:101B700070E08FE496E00E94DD0629EA31E04AE059
:101B80006EE18FE496E00E947D0626EB31E048E2AC
:101B90006EE18FE496E00E947D068FE496E00E945D
:101BA000160308958FE496E00E94000368E670E053
:101BB0008FE496E00E94DD0620EC31E04AE06EE121
:101BC0008FE496E00E947D062CEC31E048E26EE165
:101BD0008FE496E00E947D068FE496E00E94160353
:101BE000089517B88EEF8AB98FEF88B981E08BB965
:101BF0002BE93CE048E65CE062E071E08FE496E0CF
:101C00000E94270388E7809365068FE496E00E9490
:101C1000AB0A60E08FE496E00E94B60A8FE496E09B
:101C20000E94000368E670E08FE496E00E94DD0603
:101C30008FE496E00E94CA068FE496E00E94D706E1
:101C400027ED31E044E16AE08FE496E00E947D06F2
:101C50008FE496E00E9416032FEF87EA91E6215069
:101C600080409040E1F700C00000309B0E94D60CFD
:101C700031991EC02FEF89E698E1215080409040B5
:101C8000E1F700C0000080910001909101018858A7
:101C90009F4F90930101809300018935924034F069
:101CA00088E592E090930101809300010E94830DEA
:101CB00033991EC08FEF99E628E181509040204073
:101CC000E1F700C000008091000190910101885768
:101CD000910990930101809300018836914034F47A
:101CE00088E691E090930101809300010E94830DAA
:101CF0000E94830D8BB1877F8BB9B7CF97FB072EDF
:101D000016F4009407D077FD09D00E94C30E07FC9B
:101D100005D03EF4909581959F4F089570956195FB
:101D20007F4F0895A1E21A2EAA1BBB1BFD010DC017
:101D3000AA1FBB1FEE1FFF1FA217B307E407F5077B
:101D400020F0A21BB30BE40BF50B661F771F881F57
:101D5000991F1A9469F760957095809590959B01ED
:101D6000AC01BD01CF010895A29FB001B39FC00196
:101D7000A39F700D811D1124911DB29F700D811DB7
:101D80001124911D0895AA1BBB1B51E107C0AA1F76
:101D9000BB1FA617B70710F0A61BB70B881F991F0C
:101DA0005A95A9F780959095BC01CD010895DC0165
:101DB00001C06D9341505040E0F70895AEE0B0E0AF
:101DC000E4EEFEE00C949F110D891E8986E08C8361
:101DD0001A8309838FEF9FE79E838D83AE01475E51
:101DE0005F4F6F89788DCE0101960E94000FEF81C1
:101DF000F885E00FF11F10822E96E4E00C94BB11E1
:101E0000ABE0B0E0E6E0FFE00C9491116C017B01E7
:101E10008A01FC0117821682838181FFCCC1CE0129
:101E200001963C01F6019381F70193FD859193FFA3
:101E300081917F01882309F4BAC1853239F493FD79
:101E4000859193FF81917F01853229F4B60190E05D
:101E50000E94F710E7CF912C212C312CFFE1F315D4
:101E6000D8F08B3279F038F4803279F08332A1F4F3
:101E7000232D20611DC08D3261F0803369F4232D44
:101E8000216016C0832D8260382EE32DE4603E2E43
:101E90002AC0F32DF8601DC037FC2DC020ED280F9F
:101EA0002A3040F08E32B9F436FC81C1232D2064F3
:101EB000322E19C036FE06C08AE0989E200D1124ED
:101EC000922E11C0EAE02E9E200D1124222EF32D19
:101ED000F0623F2E08C08C3621F4832D8068382EA6
:101EE00002C0883641F4F70193FD859193FF8191FB
:101EF0007F018111B3CF982F9F7D9554933028F4A3
:101F00000C5F1F4F9FE399830DC0833631F08337F9
:101F100071F0833509F059C021C0F80180818983AF
:101F20000E5F1F4F88248394912C530113C0280106
:101F3000F2E04F0E511CF801A080B18036FE03C0C4
:101F4000692D70E002C06FEF7FEFC5010E94EC10B9
:101F50004C018201F32DFF773F2E16C0280122E0AD
:101F6000420E511CF801A080B18036FE03C0692DDD
:101F700070E002C06FEF7FEFC5010E94E1104C01DD
:101F8000F32DF0683F2E820133FC1BC0822D90E0C0
:101F900088169906B0F4B60180E290E00E94F7102E
:101FA0002A94F4CFF50137FC859137FE81915F01CA
:101FB000B60190E00E94F71021102A9421E0821AC5
:101FC00091088114910471F7E8C0843611F08936C4
:101FD00041F5F80137FE07C06081718182819381EC
:101FE0000C5F1F4F08C060817181072E000C880BA9
:101FF000990B0E5F1F4FF32DFF763F2E97FF09C001
:1020000090958095709561957F4F8F4F9F4FF068A9
:102010003F2E2AE030E0A3010E943311882E86185B
:1020200045C0853731F4232D2F7EB22E2AE030E0D3
:1020300025C0932D997FB92E8F36C1F018F48835BD
:1020400079F0B5C0803719F0883721F0B0C0E92F9A
:10205000E061BE2EB4FE0DC0FB2DF460BF2E09C0A2
:1020600034FE0AC0292F2660B22E06C028E030E0D8
:1020700005C020E130E002C020E132E0F801B7FE07
:1020800007C060817181828193810C5F1F4F06C000
:102090006081718180E090E00E5F1F4FA3010E947C
:1020A0003311882E8618FB2DFF773F2E36FE0DC08C
:1020B000232D2E7FA22E891458F434FE0BC032FC3F
:1020C00009C0832D8E7EA82E05C0B82CA32C03C07A
:1020D000B82C01C0B92CA4FE0FC0FE01E80DF11D03
:1020E0008081803321F49A2D997EA92E09C0A2FE09
:1020F00006C0B394B39404C08A2D867809F0B394D3
:10210000A3FC11C0A0FE06C0B21488F4280C922CC7
:102110009B180EC0B21460F4B60180E290E00E94F9
:10212000F710B394F7CFB21418F42B1802C0982C00
:10213000212CA4FE10C0B60180E390E00E94F710AD
:10214000A2FE17C0A1FC03C088E790E002C088E5AA
:1021500090E0B6010CC08A2D867859F0A1FE02C02D
:102160008BE201C080E2A7FC8DE2B60190E00E9404
:10217000F710891438F4B60180E390E00E94F7105C
:102180009A94F7CF8A94F301E80DF11D8081B6018E
:1021900090E00E94F7108110F5CF222009F442CE82
:1021A000B60180E290E00E94F7102A94F6CFF60183
:1021B0008681978102C08FEF9FEF2B96E2E10C940E
:1021C000AD11FC010590615070400110D8F7809569
:1021D00090958E0F9F1F0895FC01615070400190F3
:1021E0000110D8F7809590958E0F9F1F08950F933B
:1021F0001F93CF93DF93FB01238121FD03C08FEF5A
:102200009FEF2CC022FF16C0468157812481358163
:102210004217530744F4A081B1819D012F5F3F4FC6
:10222000318320838C93268137812F5F3F4F378303
:10223000268314C08B01EC01FB010084F185E02DA5
:102240000995892BE1F6D80116968D919C911797E7
:10225000019617969C938E931697CE01DF91CF919E
:102260001F910F910895FA01AA27283051F12031CA
:1022700081F1E8946F936E7F6E5F7F4F8F4F9F4F1A
:10228000AF4FB1E03ED0B4E03CD0670F781F891F5C
:102290009A1FA11D680F791F8A1F911DA11D6A0F2A
:1022A000711D811D911DA11D20D009F468943F91DD
:1022B0002AE0269F11243019305D3193DEF6CF01DC
:1022C0000895462F4770405D4193B3E00FD0C9F7A2
:1022D000F6CF462F4F70405D4A3318F0495D31FD0F
:1022E0004052419302D0A9F7EACFB4E0A695979562
:1022F000879577956795BA95C9F700976105710538
:1023000008959B01AC010A2E069457954795379581
:102310002795BA95C9F7620F731F841F951FA01DDB
:1023200008952F923F924F925F926F927F928F9279
:102330009F92AF92BF92CF92DF92EF92FF920F9354
:102340001F93CF93DF93CDB7DEB7CA1BDB0B0FB65E
:10235000F894DEBF0FBECDBF09942A88398848881B
:102360005F846E847D848C849B84AA84B984C884B1
:10237000DF80EE80FD800C811B81AA81B981CE0FA8
:10238000D11D0FB6F894DEBF0FBECDBFED0108958D
:04239000F894FFCFEF
:10239400E0015B088B0897080001140A6464323278
:1023A40000127A0000042896100800008000400003
:1023B4001815A015C019FF1815A115C819FF18156F
:1023C400AE19FF1815AF19FF1815AE15D5168015DF
:1023D400A8163F15D316001540158D161415201692
:1023E4000015A115C815DA1612158116CF15D916C0
:1023F400F115DB1640152E15A415A619FF436175BA
:1024040074696F6E00466F7263652053746F7070E9
:1024140065640025643A25640054696D65204C6543
:10242400667400536D616C6C204974656D7300367D
:10243400204D696E75746573004D656469756D2012
:102444004974656D730038204D696E757465730049
:102454004C61726765204974656D73003130204D9D
:10246400696E75746573002E2E2E2E546865205384
:0A247400717561642E2E2E2E0000FB
:00000001FF
